{
  "contractName": "Property",
  "abi": [
    {
      "inputs": [
        {
          "internalType": "string",
          "name": "_fingerprint",
          "type": "string"
        },
        {
          "internalType": "address",
          "name": "_owner",
          "type": "address"
        }
      ],
      "payable": false,
      "stateMutability": "nonpayable",
      "type": "constructor"
    },
    {
      "constant": true,
      "inputs": [],
      "name": "fingerprint",
      "outputs": [
        {
          "internalType": "string",
          "name": "",
          "type": "string"
        }
      ],
      "payable": false,
      "stateMutability": "view",
      "type": "function"
    },
    {
      "constant": true,
      "inputs": [],
      "name": "owner",
      "outputs": [
        {
          "internalType": "address",
          "name": "",
          "type": "address"
        }
      ],
      "payable": false,
      "stateMutability": "view",
      "type": "function"
    }
  ],
  "bytecode": "0x608060405234801561001057600080fd5b5060405161040f38038061040f8339818101604052604081101561003357600080fd5b810190808051604051939291908464010000000082111561005357600080fd5b8382019150602082018581111561006957600080fd5b825186600182028301116401000000008211171561008657600080fd5b8083526020830192505050908051906020019080838360005b838110156100ba57808201518184015260208101905061009f565b50505050905090810190601f1680156100e75780820380516001836020036101000a031916815260200191505b5060405260200180519060200190929190505050816000908051906020019061011192919061015a565b5080600160006101000a81548173ffffffffffffffffffffffffffffffffffffffff021916908373ffffffffffffffffffffffffffffffffffffffff16021790555050506101ff565b828054600181600116156101000203166002900490600052602060002090601f016020900481019282601f1061019b57805160ff19168380011785556101c9565b828001600101855582156101c9579182015b828111156101c85782518255916020019190600101906101ad565b5b5090506101d691906101da565b5090565b6101fc91905b808211156101f85760008160009055506001016101e0565b5090565b90565b6102018061020e6000396000f3fe608060405234801561001057600080fd5b50600436106100365760003560e01c80634ef98ff91461003b5780638da5cb5b146100be575b600080fd5b610043610108565b6040518080602001828103825283818151815260200191508051906020019080838360005b83811015610083578082015181840152602081019050610068565b50505050905090810190601f1680156100b05780820380516001836020036101000a031916815260200191505b509250505060405180910390f35b6100c66101a6565b604051808273ffffffffffffffffffffffffffffffffffffffff1673ffffffffffffffffffffffffffffffffffffffff16815260200191505060405180910390f35b60008054600181600116156101000203166002900480601f01602080910402602001604051908101604052809291908181526020018280546001816001161561010002031660029004801561019e5780601f106101735761010080835404028352916020019161019e565b820191906000526020600020905b81548152906001019060200180831161018157829003601f168201915b505050505081565b600160009054906101000a900473ffffffffffffffffffffffffffffffffffffffff168156fea265627a7a7231582018cf37ca63730a09491e47c3a0161788f4e22fc9943c4324dae3a87ca407a27564736f6c63430005100032",
  "source": "pragma solidity ^0.5.0;\n\ncontract Property {\n    string public fingerprint;\n    address public owner;\n\n    constructor(string memory _fingerprint, address _owner) public {\n        fingerprint = _fingerprint;\n        owner = _owner;\n    }\n}",
  "sourcePath": "/media/data/Documents/Studia/Blockchain/Projekt/pet-shop/contracts/Property.sol",
  "compiler": {
    "name": "solc",
    "version": "0.5.16+commit.9c3226ce.Emscripten.clang"
  },
  "schemaVersion": "3.2.0",
  "updatedAt": "2020-06-19T22:08:33.912Z",
  "devdoc": {
    "methods": {}
  },
  "userdoc": {
    "methods": {}
  }
}